{
  "_format": "hh-sol-artifact-1",
  "contractName": "Domains",
  "sourceName": "contracts/Domains.sol",
  "abi": [
    {
      "inputs": [
        {
          "internalType": "string",
          "name": "_tld",
          "type": "string"
        }
      ],
      "stateMutability": "payable",
      "type": "constructor"
    },
    {
      "anonymous": false,
      "inputs": [
        {
          "indexed": true,
          "internalType": "address",
          "name": "owner",
          "type": "address"
        },
        {
          "indexed": true,
          "internalType": "address",
          "name": "approved",
          "type": "address"
        },
        {
          "indexed": true,
          "internalType": "uint256",
          "name": "tokenId",
          "type": "uint256"
        }
      ],
      "name": "Approval",
      "type": "event"
    },
    {
      "anonymous": false,
      "inputs": [
        {
          "indexed": true,
          "internalType": "address",
          "name": "owner",
          "type": "address"
        },
        {
          "indexed": true,
          "internalType": "address",
          "name": "operator",
          "type": "address"
        },
        {
          "indexed": false,
          "internalType": "bool",
          "name": "approved",
          "type": "bool"
        }
      ],
      "name": "ApprovalForAll",
      "type": "event"
    },
    {
      "anonymous": false,
      "inputs": [
        {
          "indexed": true,
          "internalType": "address",
          "name": "from",
          "type": "address"
        },
        {
          "indexed": true,
          "internalType": "address",
          "name": "to",
          "type": "address"
        },
        {
          "indexed": true,
          "internalType": "uint256",
          "name": "tokenId",
          "type": "uint256"
        }
      ],
      "name": "Transfer",
      "type": "event"
    },
    {
      "inputs": [
        {
          "internalType": "address",
          "name": "to",
          "type": "address"
        },
        {
          "internalType": "uint256",
          "name": "tokenId",
          "type": "uint256"
        }
      ],
      "name": "approve",
      "outputs": [],
      "stateMutability": "nonpayable",
      "type": "function"
    },
    {
      "inputs": [
        {
          "internalType": "address",
          "name": "owner",
          "type": "address"
        }
      ],
      "name": "balanceOf",
      "outputs": [
        {
          "internalType": "uint256",
          "name": "",
          "type": "uint256"
        }
      ],
      "stateMutability": "view",
      "type": "function"
    },
    {
      "inputs": [
        {
          "internalType": "string",
          "name": "",
          "type": "string"
        }
      ],
      "name": "domains",
      "outputs": [
        {
          "internalType": "address",
          "name": "",
          "type": "address"
        }
      ],
      "stateMutability": "view",
      "type": "function"
    },
    {
      "inputs": [
        {
          "internalType": "string",
          "name": "name",
          "type": "string"
        }
      ],
      "name": "getAddress",
      "outputs": [
        {
          "internalType": "address",
          "name": "",
          "type": "address"
        }
      ],
      "stateMutability": "view",
      "type": "function"
    },
    {
      "inputs": [
        {
          "internalType": "uint256",
          "name": "tokenId",
          "type": "uint256"
        }
      ],
      "name": "getApproved",
      "outputs": [
        {
          "internalType": "address",
          "name": "",
          "type": "address"
        }
      ],
      "stateMutability": "view",
      "type": "function"
    },
    {
      "inputs": [
        {
          "internalType": "string",
          "name": "name",
          "type": "string"
        }
      ],
      "name": "grtRecord",
      "outputs": [
        {
          "internalType": "string",
          "name": "",
          "type": "string"
        }
      ],
      "stateMutability": "view",
      "type": "function"
    },
    {
      "inputs": [
        {
          "internalType": "address",
          "name": "owner",
          "type": "address"
        },
        {
          "internalType": "address",
          "name": "operator",
          "type": "address"
        }
      ],
      "name": "isApprovedForAll",
      "outputs": [
        {
          "internalType": "bool",
          "name": "",
          "type": "bool"
        }
      ],
      "stateMutability": "view",
      "type": "function"
    },
    {
      "inputs": [],
      "name": "name",
      "outputs": [
        {
          "internalType": "string",
          "name": "",
          "type": "string"
        }
      ],
      "stateMutability": "view",
      "type": "function"
    },
    {
      "inputs": [
        {
          "internalType": "uint256",
          "name": "tokenId",
          "type": "uint256"
        }
      ],
      "name": "ownerOf",
      "outputs": [
        {
          "internalType": "address",
          "name": "",
          "type": "address"
        }
      ],
      "stateMutability": "view",
      "type": "function"
    },
    {
      "inputs": [
        {
          "internalType": "string",
          "name": "name",
          "type": "string"
        }
      ],
      "name": "price",
      "outputs": [
        {
          "internalType": "uint256",
          "name": "",
          "type": "uint256"
        }
      ],
      "stateMutability": "pure",
      "type": "function"
    },
    {
      "inputs": [
        {
          "internalType": "string",
          "name": "",
          "type": "string"
        }
      ],
      "name": "records",
      "outputs": [
        {
          "internalType": "string",
          "name": "",
          "type": "string"
        }
      ],
      "stateMutability": "view",
      "type": "function"
    },
    {
      "inputs": [
        {
          "internalType": "string",
          "name": "name",
          "type": "string"
        }
      ],
      "name": "register",
      "outputs": [],
      "stateMutability": "payable",
      "type": "function"
    },
    {
      "inputs": [
        {
          "internalType": "address",
          "name": "from",
          "type": "address"
        },
        {
          "internalType": "address",
          "name": "to",
          "type": "address"
        },
        {
          "internalType": "uint256",
          "name": "tokenId",
          "type": "uint256"
        }
      ],
      "name": "safeTransferFrom",
      "outputs": [],
      "stateMutability": "nonpayable",
      "type": "function"
    },
    {
      "inputs": [
        {
          "internalType": "address",
          "name": "from",
          "type": "address"
        },
        {
          "internalType": "address",
          "name": "to",
          "type": "address"
        },
        {
          "internalType": "uint256",
          "name": "tokenId",
          "type": "uint256"
        },
        {
          "internalType": "bytes",
          "name": "_data",
          "type": "bytes"
        }
      ],
      "name": "safeTransferFrom",
      "outputs": [],
      "stateMutability": "nonpayable",
      "type": "function"
    },
    {
      "inputs": [
        {
          "internalType": "address",
          "name": "operator",
          "type": "address"
        },
        {
          "internalType": "bool",
          "name": "approved",
          "type": "bool"
        }
      ],
      "name": "setApprovalForAll",
      "outputs": [],
      "stateMutability": "nonpayable",
      "type": "function"
    },
    {
      "inputs": [
        {
          "internalType": "string",
          "name": "name",
          "type": "string"
        },
        {
          "internalType": "string",
          "name": "record",
          "type": "string"
        }
      ],
      "name": "setRecord",
      "outputs": [],
      "stateMutability": "nonpayable",
      "type": "function"
    },
    {
      "inputs": [
        {
          "internalType": "bytes4",
          "name": "interfaceId",
          "type": "bytes4"
        }
      ],
      "name": "supportsInterface",
      "outputs": [
        {
          "internalType": "bool",
          "name": "",
          "type": "bool"
        }
      ],
      "stateMutability": "view",
      "type": "function"
    },
    {
      "inputs": [],
      "name": "symbol",
      "outputs": [
        {
          "internalType": "string",
          "name": "",
          "type": "string"
        }
      ],
      "stateMutability": "view",
      "type": "function"
    },
    {
      "inputs": [],
      "name": "tld",
      "outputs": [
        {
          "internalType": "string",
          "name": "",
          "type": "string"
        }
      ],
      "stateMutability": "view",
      "type": "function"
    },
    {
      "inputs": [
        {
          "internalType": "uint256",
          "name": "tokenId",
          "type": "uint256"
        }
      ],
      "name": "tokenURI",
      "outputs": [
        {
          "internalType": "string",
          "name": "",
          "type": "string"
        }
      ],
      "stateMutability": "view",
      "type": "function"
    },
    {
      "inputs": [
        {
          "internalType": "address",
          "name": "from",
          "type": "address"
        },
        {
          "internalType": "address",
          "name": "to",
          "type": "address"
        },
        {
          "internalType": "uint256",
          "name": "tokenId",
          "type": "uint256"
        }
      ],
      "name": "transferFrom",
      "outputs": [],
      "stateMutability": "nonpayable",
      "type": "function"
    }
  ],
  "bytecode": "0x6080604052604051806107c0016040528061078681526020016200488c6107869139600990805190602001906200003892919062000287565b506040518060400160405280600d81526020017f3c2f746578743e3c2f7376673e00000000000000000000000000000000000000815250600a90805190602001906200008692919062000287565b5060405162005012380380620050128339818101604052810190620000ac9190620004d4565b6040518060400160405280601481526020017f4775696c646572204e616d6520536572766963650000000000000000000000008152506040518060400160405280600381526020017f474e53000000000000000000000000000000000000000000000000000000000081525081600090805190602001906200013092919062000287565b5080600190805190602001906200014992919062000287565b50505080600890805190602001906200016492919062000287565b50620001b16040518060400160405280601881526020017f2573206e616d652073657276696365206465706c6f796564000000000000000081525082620001b860201b620014751760201c565b5062000622565b6200025a8282604051602401620001d192919062000582565b6040516020818303038152906040527f4b5c4277000000000000000000000000000000000000000000000000000000007bffffffffffffffffffffffffffffffffffffffffffffffffffffffff19166020820180517bffffffffffffffffffffffffffffffffffffffffffffffffffffffff83818316178352505050506200025e60201b60201c565b5050565b60008151905060006a636f6e736f6c652e6c6f679050602083016000808483855afa5050505050565b8280546200029590620005ec565b90600052602060002090601f016020900481019282620002b9576000855562000305565b82601f10620002d457805160ff191683800117855562000305565b8280016001018555821562000305579182015b8281111562000304578251825591602001919060010190620002e7565b5b50905062000314919062000318565b5090565b5b808211156200033357600081600090555060010162000319565b5090565b6000604051905090565b600080fd5b600080fd5b600080fd5b600080fd5b6000601f19601f8301169050919050565b7f4e487b7100000000000000000000000000000000000000000000000000000000600052604160045260246000fd5b620003a08262000355565b810181811067ffffffffffffffff82111715620003c257620003c162000366565b5b80604052505050565b6000620003d762000337565b9050620003e5828262000395565b919050565b600067ffffffffffffffff82111562000408576200040762000366565b5b620004138262000355565b9050602081019050919050565b60005b838110156200044057808201518184015260208101905062000423565b8381111562000450576000848401525b50505050565b60006200046d6200046784620003ea565b620003cb565b9050828152602081018484840111156200048c576200048b62000350565b5b6200049984828562000420565b509392505050565b600082601f830112620004b957620004b86200034b565b5b8151620004cb84826020860162000456565b91505092915050565b600060208284031215620004ed57620004ec62000341565b5b600082015167ffffffffffffffff8111156200050e576200050d62000346565b5b6200051c84828501620004a1565b91505092915050565b600081519050919050565b600082825260208201905092915050565b60006200054e8262000525565b6200055a818562000530565b93506200056c81856020860162000420565b620005778162000355565b840191505092915050565b600060408201905081810360008301526200059e818562000541565b90508181036020830152620005b4818462000541565b90509392505050565b7f4e487b7100000000000000000000000000000000000000000000000000000000600052602260045260246000fd5b600060028204905060018216806200060557607f821691505b602082108114156200061c576200061b620005bd565b5b50919050565b61425a80620006326000396000f3fe60806040526004361061012a5760003560e01c806370a08231116100ab578063c1880a981161006f578063c1880a9814610428578063c87b56dd14610451578063d395c2041461048e578063e985e9c5146104cb578063f2c298be14610508578063fe2c6198146105245761012a565b806370a082311461033157806395d89b411461036e578063a22cb46514610399578063b88d4fde146103c2578063bf40fac1146103eb5761012a565b806326449235116100f257806326449235146102265780632d5514321461026357806342842e0e1461028e578063541e771d146102b75780636352211e146102f45761012a565b806301ffc9a71461012f57806306fdde031461016c578063081812fc14610197578063095ea7b3146101d457806323b872dd146101fd575b600080fd5b34801561013b57600080fd5b50610156600480360381019061015191906128b8565b610561565b6040516101639190612900565b60405180910390f35b34801561017857600080fd5b50610181610643565b60405161018e91906129b4565b60405180910390f35b3480156101a357600080fd5b506101be60048036038101906101b99190612a0c565b6106d5565b6040516101cb9190612a7a565b60405180910390f35b3480156101e057600080fd5b506101fb60048036038101906101f69190612ac1565b61075a565b005b34801561020957600080fd5b50610224600480360381019061021f9190612b01565b610872565b005b34801561023257600080fd5b5061024d60048036038101906102489190612c89565b6108d2565b60405161025a9190612a7a565b60405180910390f35b34801561026f57600080fd5b5061027861091b565b60405161028591906129b4565b60405180910390f35b34801561029a57600080fd5b506102b560048036038101906102b09190612b01565b6109a9565b005b3480156102c357600080fd5b506102de60048036038101906102d99190612c89565b6109c9565b6040516102eb91906129b4565b60405180910390f35b34801561030057600080fd5b5061031b60048036038101906103169190612a0c565b610a7f565b6040516103289190612a7a565b60405180910390f35b34801561033d57600080fd5b5061035860048036038101906103539190612cd2565b610b31565b6040516103659190612d0e565b60405180910390f35b34801561037a57600080fd5b50610383610be9565b60405161039091906129b4565b60405180910390f35b3480156103a557600080fd5b506103c060048036038101906103bb9190612d55565b610c7b565b005b3480156103ce57600080fd5b506103e960048036038101906103e49190612e36565b610c91565b005b3480156103f757600080fd5b50610412600480360381019061040d9190612f19565b610cf3565b60405161041f9190612a7a565b60405180910390f35b34801561043457600080fd5b5061044f600480360381019061044a9190612f66565b610d3e565b005b34801561045d57600080fd5b5061047860048036038101906104739190612a0c565b610dec565b60405161048591906129b4565b60405180910390f35b34801561049a57600080fd5b506104b560048036038101906104b09190612f19565b610f3e565b6040516104c291906129b4565b60405180910390f35b3480156104d757600080fd5b506104f260048036038101906104ed9190612fe7565b610ff1565b6040516104ff9190612900565b60405180910390f35b610522600480360381019061051d9190612f19565b611085565b005b34801561053057600080fd5b5061054b60048036038101906105469190612f19565b6113db565b6040516105589190612d0e565b60405180910390f35b60007f80ac58cd000000000000000000000000000000000000000000000000000000007bffffffffffffffffffffffffffffffffffffffffffffffffffffffff1916827bffffffffffffffffffffffffffffffffffffffffffffffffffffffff1916148061062c57507f5b5e139f000000000000000000000000000000000000000000000000000000007bffffffffffffffffffffffffffffffffffffffffffffffffffffffff1916827bffffffffffffffffffffffffffffffffffffffffffffffffffffffff1916145b8061063c575061063b82611511565b5b9050919050565b60606000805461065290613056565b80601f016020809104026020016040519081016040528092919081815260200182805461067e90613056565b80156106cb5780601f106106a0576101008083540402835291602001916106cb565b820191906000526020600020905b8154815290600101906020018083116106ae57829003601f168201915b5050505050905090565b60006106e08261157b565b61071f576040517f08c379a0000000000000000000000000000000000000000000000000000000008152600401610716906130fa565b60405180910390fd5b6004600083815260200190815260200160002060009054906101000a900473ffffffffffffffffffffffffffffffffffffffff169050919050565b600061076582610a7f565b90508073ffffffffffffffffffffffffffffffffffffffff168373ffffffffffffffffffffffffffffffffffffffff1614156107d6576040517f08c379a00000000000000000000000000000000000000000000000000000000081526004016107cd9061318c565b60405180910390fd5b8073ffffffffffffffffffffffffffffffffffffffff166107f56115e7565b73ffffffffffffffffffffffffffffffffffffffff16148061082457506108238161081e6115e7565b610ff1565b5b610863576040517f08c379a000000000000000000000000000000000000000000000000000000000815260040161085a9061321e565b60405180910390fd5b61086d83836115ef565b505050565b61088361087d6115e7565b826116a8565b6108c2576040517f08c379a00000000000000000000000000000000000000000000000000000000081526004016108b9906132b0565b60405180910390fd5b6108cd838383611786565b505050565b600b818051602081018201805184825260208301602085012081835280955050505050506000915054906101000a900473ffffffffffffffffffffffffffffffffffffffff1681565b6008805461092890613056565b80601f016020809104026020016040519081016040528092919081815260200182805461095490613056565b80156109a15780601f10610976576101008083540402835291602001916109a1565b820191906000526020600020905b81548152906001019060200180831161098457829003601f168201915b505050505081565b6109c483838360405180602001604052806000815250610c91565b505050565b600c8180516020810182018051848252602083016020850120818352809550505050505060009150905080546109fe90613056565b80601f0160208091040260200160405190810160405280929190818152602001828054610a2a90613056565b8015610a775780601f10610a4c57610100808354040283529160200191610a77565b820191906000526020600020905b815481529060010190602001808311610a5a57829003601f168201915b505050505081565b6000806002600084815260200190815260200160002060009054906101000a900473ffffffffffffffffffffffffffffffffffffffff169050600073ffffffffffffffffffffffffffffffffffffffff168173ffffffffffffffffffffffffffffffffffffffff161415610b28576040517f08c379a0000000000000000000000000000000000000000000000000000000008152600401610b1f90613342565b60405180910390fd5b80915050919050565b60008073ffffffffffffffffffffffffffffffffffffffff168273ffffffffffffffffffffffffffffffffffffffff161415610ba2576040517f08c379a0000000000000000000000000000000000000000000000000000000008152600401610b99906133d4565b60405180910390fd5b600360008373ffffffffffffffffffffffffffffffffffffffff1673ffffffffffffffffffffffffffffffffffffffff168152602001908152602001600020549050919050565b606060018054610bf890613056565b80601f0160208091040260200160405190810160405280929190818152602001828054610c2490613056565b8015610c715780601f10610c4657610100808354040283529160200191610c71565b820191906000526020600020905b815481529060010190602001808311610c5457829003601f168201915b5050505050905090565b610c8d610c866115e7565b83836119ed565b5050565b610ca2610c9c6115e7565b836116a8565b610ce1576040517f08c379a0000000000000000000000000000000000000000000000000000000008152600401610cd8906132b0565b60405180910390fd5b610ced84848484611b5a565b50505050565b6000600b8383604051610d07929190613424565b908152602001604051809103902060009054906101000a900473ffffffffffffffffffffffffffffffffffffffff16905092915050565b3373ffffffffffffffffffffffffffffffffffffffff16600b8585604051610d67929190613424565b908152602001604051809103902060009054906101000a900473ffffffffffffffffffffffffffffffffffffffff1673ffffffffffffffffffffffffffffffffffffffff1614610db657600080fd5b8181600c8686604051610dca929190613424565b90815260200160405180910390209190610de5929190612723565b5050505050565b6060610df78261157b565b610e36576040517f08c379a0000000000000000000000000000000000000000000000000000000008152600401610e2d906134af565b60405180910390fd5b6000600660008481526020019081526020016000208054610e5690613056565b80601f0160208091040260200160405190810160405280929190818152602001828054610e8290613056565b8015610ecf5780601f10610ea457610100808354040283529160200191610ecf565b820191906000526020600020905b815481529060010190602001808311610eb257829003601f168201915b505050505090506000610ee0611bb6565b9050600081511415610ef6578192505050610f39565b600082511115610f2b578082604051602001610f13929190613500565b60405160208183030381529060405292505050610f39565b610f3484611bcd565b925050505b919050565b6060600c8383604051610f52929190613424565b90815260200160405180910390208054610f6b90613056565b80601f0160208091040260200160405190810160405280929190818152602001828054610f9790613056565b8015610fe45780601f10610fb957610100808354040283529160200191610fe4565b820191906000526020600020905b815481529060010190602001808311610fc757829003601f168201915b5050505050905092915050565b6000600560008473ffffffffffffffffffffffffffffffffffffffff1673ffffffffffffffffffffffffffffffffffffffff16815260200190815260200160002060008373ffffffffffffffffffffffffffffffffffffffff1673ffffffffffffffffffffffffffffffffffffffff16815260200190815260200160002060009054906101000a900460ff16905092915050565b600073ffffffffffffffffffffffffffffffffffffffff16600b83836040516110af929190613424565b908152602001604051809103902060009054906101000a900473ffffffffffffffffffffffffffffffffffffffff1673ffffffffffffffffffffffffffffffffffffffff16146110fe57600080fd5b600061110a83836113db565b90508034101561114f576040517f08c379a000000000000000000000000000000000000000000000000000000000815260040161114690613570565b60405180910390fd5b60008383600860405160200161116793929190613670565b60405160208183030381529060405290506000600982600a604051602001611191939291906136a1565b604051602081830303815290604052905060006111ae6007611c74565b905060006111ff87878080601f016020809104026020016040519081016040528093929190818152602001838380828437600081840152601f19601f82011690508083019250505050505050611c82565b9050600061120c82611e37565b90506112756040518060600160405280602e81526020016141f7602e913989898080601f016020809104026020016040519081016040528093929190818152602001838380828437600081840152601f19601f8201169050808301925050505050505085611f98565b60006112ab8661128487612037565b846040516020016112979392919061384e565b604051602081830303815290604052612037565b90506000816040516020016112c091906138f7565b60405160208183030381529060405290506112f2604051806060016040528060398152602001614145603991396121cf565b6113316040518060400160405280600e81526020017f46696e616c20746f6b656e55524900000000000000000000000000000000000081525082611475565b61135260405180606001604052806039815260200161417e603991396121cf565b61135c3386612268565b6113668582612286565b33600b8b8b604051611379929190613424565b908152602001604051809103902060006101000a81548173ffffffffffffffffffffffffffffffffffffffff021916908373ffffffffffffffffffffffffffffffffffffffff1602179055506113cf60076122fa565b50505050505050505050565b60008061142b84848080601f016020809104026020016040519081016040528093929190818152602001838380828437600081840152601f19601f82011690508083019250505050505050611c82565b90506000811161143a57600080fd5b600381141561144e576113dd91505061146f565b600481141561146257610beb91505061146f565b67016345785d8a00009150505b92915050565b61150d828260405160240161148b929190613919565b6040516020818303038152906040527f4b5c4277000000000000000000000000000000000000000000000000000000007bffffffffffffffffffffffffffffffffffffffffffffffffffffffff19166020820180517bffffffffffffffffffffffffffffffffffffffffffffffffffffffff8381831617835250505050612310565b5050565b60007f01ffc9a7000000000000000000000000000000000000000000000000000000007bffffffffffffffffffffffffffffffffffffffffffffffffffffffff1916827bffffffffffffffffffffffffffffffffffffffffffffffffffffffff1916149050919050565b60008073ffffffffffffffffffffffffffffffffffffffff166002600084815260200190815260200160002060009054906101000a900473ffffffffffffffffffffffffffffffffffffffff1673ffffffffffffffffffffffffffffffffffffffff1614159050919050565b600033905090565b816004600083815260200190815260200160002060006101000a81548173ffffffffffffffffffffffffffffffffffffffff021916908373ffffffffffffffffffffffffffffffffffffffff160217905550808273ffffffffffffffffffffffffffffffffffffffff1661166283610a7f565b73ffffffffffffffffffffffffffffffffffffffff167f8c5be1e5ebec7d5bd14f71427d1e84f3dd0314c0f7b2291e5b200ac8c7c3b92560405160405180910390a45050565b60006116b38261157b565b6116f2576040517f08c379a00000000000000000000000000000000000000000000000000000000081526004016116e9906139c2565b60405180910390fd5b60006116fd83610a7f565b90508073ffffffffffffffffffffffffffffffffffffffff168473ffffffffffffffffffffffffffffffffffffffff16148061176c57508373ffffffffffffffffffffffffffffffffffffffff16611754846106d5565b73ffffffffffffffffffffffffffffffffffffffff16145b8061177d575061177c8185610ff1565b5b91505092915050565b8273ffffffffffffffffffffffffffffffffffffffff166117a682610a7f565b73ffffffffffffffffffffffffffffffffffffffff16146117fc576040517f08c379a00000000000000000000000000000000000000000000000000000000081526004016117f390613a54565b60405180910390fd5b600073ffffffffffffffffffffffffffffffffffffffff168273ffffffffffffffffffffffffffffffffffffffff16141561186c576040517f08c379a000000000000000000000000000000000000000000000000000000000815260040161186390613ae6565b60405180910390fd5b611877838383612339565b6118826000826115ef565b6001600360008573ffffffffffffffffffffffffffffffffffffffff1673ffffffffffffffffffffffffffffffffffffffff16815260200190815260200160002060008282546118d29190613b35565b925050819055506001600360008473ffffffffffffffffffffffffffffffffffffffff1673ffffffffffffffffffffffffffffffffffffffff16815260200190815260200160002060008282546119299190613b69565b92505081905550816002600083815260200190815260200160002060006101000a81548173ffffffffffffffffffffffffffffffffffffffff021916908373ffffffffffffffffffffffffffffffffffffffff160217905550808273ffffffffffffffffffffffffffffffffffffffff168473ffffffffffffffffffffffffffffffffffffffff167fddf252ad1be2c89b69c2b068fc378daa952ba7f163c4a11628f55a4df523b3ef60405160405180910390a46119e883838361233e565b505050565b8173ffffffffffffffffffffffffffffffffffffffff168373ffffffffffffffffffffffffffffffffffffffff161415611a5c576040517f08c379a0000000000000000000000000000000000000000000000000000000008152600401611a5390613c0b565b60405180910390fd5b80600560008573ffffffffffffffffffffffffffffffffffffffff1673ffffffffffffffffffffffffffffffffffffffff16815260200190815260200160002060008473ffffffffffffffffffffffffffffffffffffffff1673ffffffffffffffffffffffffffffffffffffffff16815260200190815260200160002060006101000a81548160ff0219169083151502179055508173ffffffffffffffffffffffffffffffffffffffff168373ffffffffffffffffffffffffffffffffffffffff167f17307eab39ab6107e8899845ad3d59bd9653f200f220920489ca2b5937696c3183604051611b4d9190612900565b60405180910390a3505050565b611b65848484611786565b611b7184848484612343565b611bb0576040517f08c379a0000000000000000000000000000000000000000000000000000000008152600401611ba790613c9d565b60405180910390fd5b50505050565b606060405180602001604052806000815250905090565b6060611bd88261157b565b611c17576040517f08c379a0000000000000000000000000000000000000000000000000000000008152600401611c0e90613d2f565b60405180910390fd5b6000611c21611bb6565b90506000815111611c415760405180602001604052806000815250611c6c565b80611c4b84611e37565b604051602001611c5c929190613500565b6040516020818303038152906040525b915050919050565b600081600001549050919050565b60008060008084519050600092505b80821015611e2c576000858381518110611cae57611cad613d4f565b5b602001015160f81c60f81b9050608060f81b817effffffffffffffffffffffffffffffffffffffffffffffffffffffffffffff19161015611cfd57600183611cf69190613b69565b9250611e18565b60e060f81b817effffffffffffffffffffffffffffffffffffffffffffffffffffffffffffff19161015611d3f57600283611d389190613b69565b9250611e17565b60f060f81b817effffffffffffffffffffffffffffffffffffffffffffffffffffffffffffff19161015611d8157600383611d7a9190613b69565b9250611e16565b60f8801b817effffffffffffffffffffffffffffffffffffffffffffffffffffffffffffff19161015611dc257600483611dbb9190613b69565b9250611e15565b60fc60f81b817effffffffffffffffffffffffffffffffffffffffffffffffffffffffffffff19161015611e0457600583611dfd9190613b69565b9250611e14565b600683611e119190613b69565b92505b5b5b5b5b508280611e2490613d7e565b935050611c91565b829350505050919050565b60606000821415611e7f576040518060400160405280600181526020017f30000000000000000000000000000000000000000000000000000000000000008152509050611f93565b600082905060005b60008214611eb1578080611e9a90613d7e565b915050600a82611eaa9190613df6565b9150611e87565b60008167ffffffffffffffff811115611ecd57611ecc612b5e565b5b6040519080825280601f01601f191660200182016040528015611eff5781602001600182028036833780820191505090505b5090505b60008514611f8c57600182611f189190613b35565b9150600a85611f279190613e27565b6030611f339190613b69565b60f81b818381518110611f4957611f48613d4f565b5b60200101907effffffffffffffffffffffffffffffffffffffffffffffffffffffffffffff1916908160001a905350600a85611f859190613df6565b9450611f03565b8093505050505b919050565b612032838383604051602401611fb093929190613e58565b6040516020818303038152906040527ff362ca59000000000000000000000000000000000000000000000000000000007bffffffffffffffffffffffffffffffffffffffffffffffffffffffff19166020820180517bffffffffffffffffffffffffffffffffffffffffffffffffffffffff8381831617835250505050612310565b505050565b6060600082519050600081141561206057604051806020016040528060008152509150506121ca565b600060036002836120719190613b69565b61207b9190613df6565b60046120879190613e9d565b905060006020826120989190613b69565b67ffffffffffffffff8111156120b1576120b0612b5e565b5b6040519080825280601f01601f1916602001820160405280156120e35781602001600182028036833780820191505090505b50905060006040518060600160405280604081526020016141b7604091399050600181016020830160005b868110156121875760038101905062ffffff818a015116603f8160121c168401518060081b905060ff603f83600c1c1686015116810190508060081b905060ff603f8360061c1686015116810190508060081b905060ff603f831686015116810190508060e01b9050808452600484019350505061210e565b5060038606600181146121a157600281146121b1576121bc565b613d3d60f01b60028303526121bc565b603d60f81b60018303525b508484525050819450505050505b919050565b612265816040516024016121e391906129b4565b6040516020818303038152906040527f41304fac000000000000000000000000000000000000000000000000000000007bffffffffffffffffffffffffffffffffffffffffffffffffffffffff19166020820180517bffffffffffffffffffffffffffffffffffffffffffffffffffffffff8381831617835250505050612310565b50565b6122828282604051806020016040528060008152506124cb565b5050565b61228f8261157b565b6122ce576040517f08c379a00000000000000000000000000000000000000000000000000000000081526004016122c590613f69565b60405180910390fd5b806006600084815260200190815260200160002090805190602001906122f59291906127a9565b505050565b6001816000016000828254019250508190555050565b60008151905060006a636f6e736f6c652e6c6f679050602083016000808483855afa5050505050565b505050565b505050565b60006123648473ffffffffffffffffffffffffffffffffffffffff16612526565b156124be578373ffffffffffffffffffffffffffffffffffffffff1663150b7a0261238d6115e7565b8786866040518563ffffffff1660e01b81526004016123af9493929190613fde565b6020604051808303816000875af19250505080156123eb57506040513d601f19601f820116820180604052508101906123e8919061403f565b60015b61246e573d806000811461241b576040519150601f19603f3d011682016040523d82523d6000602084013e612420565b606091505b50600081511415612466576040517f08c379a000000000000000000000000000000000000000000000000000000000815260040161245d90613c9d565b60405180910390fd5b805181602001fd5b63150b7a0260e01b7bffffffffffffffffffffffffffffffffffffffffffffffffffffffff1916817bffffffffffffffffffffffffffffffffffffffffffffffffffffffff1916149150506124c3565b600190505b949350505050565b6124d58383612549565b6124e26000848484612343565b612521576040517f08c379a000000000000000000000000000000000000000000000000000000000815260040161251890613c9d565b60405180910390fd5b505050565b6000808273ffffffffffffffffffffffffffffffffffffffff163b119050919050565b600073ffffffffffffffffffffffffffffffffffffffff168273ffffffffffffffffffffffffffffffffffffffff1614156125b9576040517f08c379a00000000000000000000000000000000000000000000000000000000081526004016125b0906140b8565b60405180910390fd5b6125c28161157b565b15612602576040517f08c379a00000000000000000000000000000000000000000000000000000000081526004016125f990614124565b60405180910390fd5b61260e60008383612339565b6001600360008473ffffffffffffffffffffffffffffffffffffffff1673ffffffffffffffffffffffffffffffffffffffff168152602001908152602001600020600082825461265e9190613b69565b92505081905550816002600083815260200190815260200160002060006101000a81548173ffffffffffffffffffffffffffffffffffffffff021916908373ffffffffffffffffffffffffffffffffffffffff160217905550808273ffffffffffffffffffffffffffffffffffffffff16600073ffffffffffffffffffffffffffffffffffffffff167fddf252ad1be2c89b69c2b068fc378daa952ba7f163c4a11628f55a4df523b3ef60405160405180910390a461271f6000838361233e565b5050565b82805461272f90613056565b90600052602060002090601f0160209004810192826127515760008555612798565b82601f1061276a57803560ff1916838001178555612798565b82800160010185558215612798579182015b8281111561279757823582559160200191906001019061277c565b5b5090506127a5919061282f565b5090565b8280546127b590613056565b90600052602060002090601f0160209004810192826127d7576000855561281e565b82601f106127f057805160ff191683800117855561281e565b8280016001018555821561281e579182015b8281111561281d578251825591602001919060010190612802565b5b50905061282b919061282f565b5090565b5b80821115612848576000816000905550600101612830565b5090565b6000604051905090565b600080fd5b600080fd5b60007fffffffff0000000000000000000000000000000000000000000000000000000082169050919050565b61289581612860565b81146128a057600080fd5b50565b6000813590506128b28161288c565b92915050565b6000602082840312156128ce576128cd612856565b5b60006128dc848285016128a3565b91505092915050565b60008115159050919050565b6128fa816128e5565b82525050565b600060208201905061291560008301846128f1565b92915050565b600081519050919050565b600082825260208201905092915050565b60005b8381101561295557808201518184015260208101905061293a565b83811115612964576000848401525b50505050565b6000601f19601f8301169050919050565b60006129868261291b565b6129908185612926565b93506129a0818560208601612937565b6129a98161296a565b840191505092915050565b600060208201905081810360008301526129ce818461297b565b905092915050565b6000819050919050565b6129e9816129d6565b81146129f457600080fd5b50565b600081359050612a06816129e0565b92915050565b600060208284031215612a2257612a21612856565b5b6000612a30848285016129f7565b91505092915050565b600073ffffffffffffffffffffffffffffffffffffffff82169050919050565b6000612a6482612a39565b9050919050565b612a7481612a59565b82525050565b6000602082019050612a8f6000830184612a6b565b92915050565b612a9e81612a59565b8114612aa957600080fd5b50565b600081359050612abb81612a95565b92915050565b60008060408385031215612ad857612ad7612856565b5b6000612ae685828601612aac565b9250506020612af7858286016129f7565b9150509250929050565b600080600060608486031215612b1a57612b19612856565b5b6000612b2886828701612aac565b9350506020612b3986828701612aac565b9250506040612b4a868287016129f7565b9150509250925092565b600080fd5b600080fd5b7f4e487b7100000000000000000000000000000000000000000000000000000000600052604160045260246000fd5b612b968261296a565b810181811067ffffffffffffffff82111715612bb557612bb4612b5e565b5b80604052505050565b6000612bc861284c565b9050612bd48282612b8d565b919050565b600067ffffffffffffffff821115612bf457612bf3612b5e565b5b612bfd8261296a565b9050602081019050919050565b82818337600083830152505050565b6000612c2c612c2784612bd9565b612bbe565b905082815260208101848484011115612c4857612c47612b59565b5b612c53848285612c0a565b509392505050565b600082601f830112612c7057612c6f612b54565b5b8135612c80848260208601612c19565b91505092915050565b600060208284031215612c9f57612c9e612856565b5b600082013567ffffffffffffffff811115612cbd57612cbc61285b565b5b612cc984828501612c5b565b91505092915050565b600060208284031215612ce857612ce7612856565b5b6000612cf684828501612aac565b91505092915050565b612d08816129d6565b82525050565b6000602082019050612d236000830184612cff565b92915050565b612d32816128e5565b8114612d3d57600080fd5b50565b600081359050612d4f81612d29565b92915050565b60008060408385031215612d6c57612d6b612856565b5b6000612d7a85828601612aac565b9250506020612d8b85828601612d40565b9150509250929050565b600067ffffffffffffffff821115612db057612daf612b5e565b5b612db98261296a565b9050602081019050919050565b6000612dd9612dd484612d95565b612bbe565b905082815260208101848484011115612df557612df4612b59565b5b612e00848285612c0a565b509392505050565b600082601f830112612e1d57612e1c612b54565b5b8135612e2d848260208601612dc6565b91505092915050565b60008060008060808587031215612e5057612e4f612856565b5b6000612e5e87828801612aac565b9450506020612e6f87828801612aac565b9350506040612e80878288016129f7565b925050606085013567ffffffffffffffff811115612ea157612ea061285b565b5b612ead87828801612e08565b91505092959194509250565b600080fd5b600080fd5b60008083601f840112612ed957612ed8612b54565b5b8235905067ffffffffffffffff811115612ef657612ef5612eb9565b5b602083019150836001820283011115612f1257612f11612ebe565b5b9250929050565b60008060208385031215612f3057612f2f612856565b5b600083013567ffffffffffffffff811115612f4e57612f4d61285b565b5b612f5a85828601612ec3565b92509250509250929050565b60008060008060408587031215612f8057612f7f612856565b5b600085013567ffffffffffffffff811115612f9e57612f9d61285b565b5b612faa87828801612ec3565b9450945050602085013567ffffffffffffffff811115612fcd57612fcc61285b565b5b612fd987828801612ec3565b925092505092959194509250565b60008060408385031215612ffe57612ffd612856565b5b600061300c85828601612aac565b925050602061301d85828601612aac565b9150509250929050565b7f4e487b7100000000000000000000000000000000000000000000000000000000600052602260045260246000fd5b6000600282049050600182168061306e57607f821691505b6020821081141561308257613081613027565b5b50919050565b7f4552433732313a20617070726f76656420717565727920666f72206e6f6e657860008201527f697374656e7420746f6b656e0000000000000000000000000000000000000000602082015250565b60006130e4602c83612926565b91506130ef82613088565b604082019050919050565b60006020820190508181036000830152613113816130d7565b9050919050565b7f4552433732313a20617070726f76616c20746f2063757272656e74206f776e6560008201527f7200000000000000000000000000000000000000000000000000000000000000602082015250565b6000613176602183612926565b91506131818261311a565b604082019050919050565b600060208201905081810360008301526131a581613169565b9050919050565b7f4552433732313a20617070726f76652063616c6c6572206973206e6f74206f7760008201527f6e6572206e6f7220617070726f76656420666f7220616c6c0000000000000000602082015250565b6000613208603883612926565b9150613213826131ac565b604082019050919050565b60006020820190508181036000830152613237816131fb565b9050919050565b7f4552433732313a207472616e736665722063616c6c6572206973206e6f74206f60008201527f776e6572206e6f7220617070726f766564000000000000000000000000000000602082015250565b600061329a603183612926565b91506132a58261323e565b604082019050919050565b600060208201905081810360008301526132c98161328d565b9050919050565b7f4552433732313a206f776e657220717565727920666f72206e6f6e657869737460008201527f656e7420746f6b656e0000000000000000000000000000000000000000000000602082015250565b600061332c602983612926565b9150613337826132d0565b604082019050919050565b6000602082019050818103600083015261335b8161331f565b9050919050565b7f4552433732313a2062616c616e636520717565727920666f7220746865207a6560008201527f726f206164647265737300000000000000000000000000000000000000000000602082015250565b60006133be602a83612926565b91506133c982613362565b604082019050919050565b600060208201905081810360008301526133ed816133b1565b9050919050565b600081905092915050565b600061340b83856133f4565b9350613418838584612c0a565b82840190509392505050565b60006134318284866133ff565b91508190509392505050565b7f45524337323155524953746f726167653a2055524920717565727920666f722060008201527f6e6f6e6578697374656e7420746f6b656e000000000000000000000000000000602082015250565b6000613499603183612926565b91506134a48261343d565b604082019050919050565b600060208201905081810360008301526134c88161348c565b9050919050565b60006134da8261291b565b6134e481856133f4565b93506134f4818560208601612937565b80840191505092915050565b600061350c82856134cf565b915061351882846134cf565b91508190509392505050565b7f4e6f7420656e6f756768204d6174696320706169640000000000000000000000600082015250565b600061355a601583612926565b915061356582613524565b602082019050919050565b600060208201905081810360008301526135898161354d565b9050919050565b7f2e00000000000000000000000000000000000000000000000000000000000000600082015250565b60006135c66001836133f4565b91506135d182613590565b600182019050919050565b60008190508160005260206000209050919050565b600081546135fe81613056565b61360881866133f4565b94506001821660008114613623576001811461363457613667565b60ff19831686528186019350613667565b61363d856135dc565b60005b8381101561365f57815481890152600182019150602081019050613640565b838801955050505b50505092915050565b600061367d8285876133ff565b9150613688826135b9565b915061369482846135f1565b9150819050949350505050565b60006136ad82866135f1565b91506136b982856134cf565b91506136c582846135f1565b9150819050949350505050565b7f7b226e616d65223a202200000000000000000000000000000000000000000000600082015250565b6000613708600a836133f4565b9150613713826136d2565b600a82019050919050565b7f222c20226465736372697074696f6e223a20224120646f6d61696e206f6e207460008201527f6865204775696c646572206e616d652073657276696365222c2022696d61676560208201527f223a2022646174613a696d6167652f7376672b786d6c3b6261736536342c0000604082015250565b60006137a0605e836133f4565b91506137ab8261371e565b605e82019050919050565b7f222c226c656e677468223a220000000000000000000000000000000000000000600082015250565b60006137ec600c836133f4565b91506137f7826137b6565b600c82019050919050565b7f227d000000000000000000000000000000000000000000000000000000000000600082015250565b60006138386002836133f4565b915061384382613802565b600282019050919050565b6000613859826136fb565b915061386582866134cf565b915061387082613793565b915061387c82856134cf565b9150613887826137df565b915061389382846134cf565b915061389e8261382b565b9150819050949350505050565b7f646174613a6170706c69636174696f6e2f6a736f6e3b6261736536342c000000600082015250565b60006138e1601d836133f4565b91506138ec826138ab565b601d82019050919050565b6000613902826138d4565b915061390e82846134cf565b915081905092915050565b60006040820190508181036000830152613933818561297b565b90508181036020830152613947818461297b565b90509392505050565b7f4552433732313a206f70657261746f7220717565727920666f72206e6f6e657860008201527f697374656e7420746f6b656e0000000000000000000000000000000000000000602082015250565b60006139ac602c83612926565b91506139b782613950565b604082019050919050565b600060208201905081810360008301526139db8161399f565b9050919050565b7f4552433732313a207472616e736665722066726f6d20696e636f72726563742060008201527f6f776e6572000000000000000000000000000000000000000000000000000000602082015250565b6000613a3e602583612926565b9150613a49826139e2565b604082019050919050565b60006020820190508181036000830152613a6d81613a31565b9050919050565b7f4552433732313a207472616e7366657220746f20746865207a65726f2061646460008201527f7265737300000000000000000000000000000000000000000000000000000000602082015250565b6000613ad0602483612926565b9150613adb82613a74565b604082019050919050565b60006020820190508181036000830152613aff81613ac3565b9050919050565b7f4e487b7100000000000000000000000000000000000000000000000000000000600052601160045260246000fd5b6000613b40826129d6565b9150613b4b836129d6565b925082821015613b5e57613b5d613b06565b5b828203905092915050565b6000613b74826129d6565b9150613b7f836129d6565b9250827fffffffffffffffffffffffffffffffffffffffffffffffffffffffffffffffff03821115613bb457613bb3613b06565b5b828201905092915050565b7f4552433732313a20617070726f766520746f2063616c6c657200000000000000600082015250565b6000613bf5601983612926565b9150613c0082613bbf565b602082019050919050565b60006020820190508181036000830152613c2481613be8565b9050919050565b7f4552433732313a207472616e7366657220746f206e6f6e20455243373231526560008201527f63656976657220696d706c656d656e7465720000000000000000000000000000602082015250565b6000613c87603283612926565b9150613c9282613c2b565b604082019050919050565b60006020820190508181036000830152613cb681613c7a565b9050919050565b7f4552433732314d657461646174613a2055524920717565727920666f72206e6f60008201527f6e6578697374656e7420746f6b656e0000000000000000000000000000000000602082015250565b6000613d19602f83612926565b9150613d2482613cbd565b604082019050919050565b60006020820190508181036000830152613d4881613d0c565b9050919050565b7f4e487b7100000000000000000000000000000000000000000000000000000000600052603260045260246000fd5b6000613d89826129d6565b91507fffffffffffffffffffffffffffffffffffffffffffffffffffffffffffffffff821415613dbc57613dbb613b06565b5b600182019050919050565b7f4e487b7100000000000000000000000000000000000000000000000000000000600052601260045260246000fd5b6000613e01826129d6565b9150613e0c836129d6565b925082613e1c57613e1b613dc7565b5b828204905092915050565b6000613e32826129d6565b9150613e3d836129d6565b925082613e4d57613e4c613dc7565b5b828206905092915050565b60006060820190508181036000830152613e72818661297b565b90508181036020830152613e86818561297b565b9050613e956040830184612cff565b949350505050565b6000613ea8826129d6565b9150613eb3836129d6565b9250817fffffffffffffffffffffffffffffffffffffffffffffffffffffffffffffffff0483118215151615613eec57613eeb613b06565b5b828202905092915050565b7f45524337323155524953746f726167653a2055524920736574206f66206e6f6e60008201527f6578697374656e7420746f6b656e000000000000000000000000000000000000602082015250565b6000613f53602e83612926565b9150613f5e82613ef7565b604082019050919050565b60006020820190508181036000830152613f8281613f46565b9050919050565b600081519050919050565b600082825260208201905092915050565b6000613fb082613f89565b613fba8185613f94565b9350613fca818560208601612937565b613fd38161296a565b840191505092915050565b6000608082019050613ff36000830187612a6b565b6140006020830186612a6b565b61400d6040830185612cff565b818103606083015261401f8184613fa5565b905095945050505050565b6000815190506140398161288c565b92915050565b60006020828403121561405557614054612856565b5b60006140638482850161402a565b91505092915050565b7f4552433732313a206d696e7420746f20746865207a65726f2061646472657373600082015250565b60006140a2602083612926565b91506140ad8261406c565b602082019050919050565b600060208201905081810360008301526140d181614095565b9050919050565b7f4552433732313a20746f6b656e20616c7265616479206d696e74656400000000600082015250565b600061410e601c83612926565b9150614119826140d8565b602082019050919050565b6000602082019050818103600083015261413d81614101565b905091905056fe0a2d2d2d2d2d2d2d2d2d2d2d2d2d2d2d2d2d2d2d2d2d2d2d2d2d2d2d2d2d2d2d2d2d2d2d2d2d2d2d2d2d2d2d2d2d2d2d2d2d2d2d2d2d2d2d2d2d2d2d2d2d2d2d2d2d2d2d2d2d2d2d2d2d2d2d2d2d2d2d2d2d2d2d2d2d2d2d2d2d2d2d2d2d2d2d2d2d2d2d2d2d2d2d2d2d2d2d2d2d2d2d2d0a4142434445464748494a4b4c4d4e4f505152535455565758595a6162636465666768696a6b6c6d6e6f707172737475767778797a303132333435363738392b2f5265676973746572696e67202573206f6e2074686520636f6e7472616374207769746820746f6b656e4944202564a2646970667358221220e8238b115a3f749698f79fa74b2e000edf1382e5e172aae8f9eef9755b73494164736f6c634300080a00333c73766720786d6c6e733d22687474703a2f2f7777772e77332e6f72672f323030302f737667222077696474683d2232373022206865696768743d22323730222066696c6c3d226e6f6e65223e3c706174682066696c6c3d2275726c282361292220643d224d302030683237307632373048307a222f3e3c646566733e3c66696c7465722069643d22622220636f6c6f722d696e746572706f6c6174696f6e2d66696c746572733d2273524742222066696c746572556e6974733d227573657253706163654f6e55736522206865696768743d22323730222077696474683d22323730223e3c666544726f70536861646f772064783d2230222064793d22312220737464446576696174696f6e3d22322220666c6f6f642d6f7061636974793d222e323235222077696474683d223230302522206865696768743d2232303025222f3e3c2f66696c7465723e3c2f646566733e3c7061746820643d224d37322e3836332034322e39343961342e33383220342e3338322030203020302d342e33393420306c2d31302e30383120362e3033322d362e383520332e3933342d31302e30383120362e30333261342e33383220342e3338322030203020312d342e33393420306c2d382e3031332d342e37323161342e353220342e35322030203020312d312e3538392d312e36313620342e353420342e35342030203020312d2e3630382d322e313837762d392e333161342e323720342e3237203020302031202e3537322d322e32303820342e323520342e323520302030203120312e3632352d312e3539356c372e3838342d342e353961342e33383220342e33383220302030203120342e33393420306c372e38383420342e353961342e353220342e353220302030203120312e35383920312e36313620342e353420342e3534203020302031202e36303820322e31383776362e3033326c362e38352d342e303635762d362e30333261342e323720342e32372030203020302d2e3537322d322e32303820342e323520342e32352030203020302d312e3632352d312e3539354c34312e3435362032342e353961342e33383220342e3338322030203020302d342e33393420306c2d31342e38363420382e36353561342e323520342e32352030203020302d312e36323520312e35393520342e32373320342e3237332030203020302d2e35373220322e3230387631372e34343161342e323720342e3237203020302030202e35373220322e32303820342e323520342e323520302030203020312e36323520312e3539356c31342e38363420382e36353561342e33383220342e33383220302030203020342e33393420306c31302e3038312d352e39303120362e38352d342e3036352031302e3038312d352e39303161342e33383220342e33383220302030203120342e33393420306c372e38383420342e353961342e353220342e353220302030203120312e35383920312e36313620342e353420342e3534203020302031202e36303820322e31383776392e33313161342e323720342e32372030203020312d2e35373220322e32303820342e323520342e32352030203020312d312e36323520312e3539356c2d372e38383420342e37323161342e33383220342e3338322030203020312d342e33393420306c2d372e3838342d342e353961342e353220342e35322030203020312d312e3538392d312e36313620342e353320342e35332030203020312d2e3630382d322e313837762d362e3033326c2d362e383520342e30363576362e30333261342e323720342e3237203020302030202e35373220322e32303820342e323520342e323520302030203020312e36323520312e3539356c31342e38363420382e36353561342e33383220342e33383220302030203020342e33393420306c31342e3836342d382e36353561342e35343520342e35343520302030203020322e3139382d332e3830335635352e35333861342e323720342e32372030203020302d2e3537322d322e32303820342e323520342e32352030203020302d312e3632352d312e3539356c2d31342e3939332d382e3738367a222066696c6c3d2223444544434536222f3e3c646566733e3c6c696e6561724772616469656e742069643d2261222078313d2230222079313d2230222078323d22323730222079323d2232373022206772616469656e74556e6974733d227573657253706163654f6e557365223e3c73746f702073746f702d636f6c6f723d2223374630334642222f3e3c73746f70206f66667365743d2231222073746f702d636f6c6f723d2223374630334642222073746f702d6f7061636974793d222e3939222f3e3c2f6c696e6561724772616469656e743e3c2f646566733e3c7465787420783d2233302220793d223135302220666f6e742d73697a653d223330222066696c6c3d2223444544434536222066696c7465723d2275726c282362292220666f6e742d66616d696c793d22506c7573204a616b617274612053616e732c44656a6156752053616e732c4e6f746f20436f6c6f7220456d6f6a692c4170706c6520436f6c6f7220456d6f6a692c73616e732d73657269662220666f6e742d7765696768743d22626f6c64223e4b61692e676c643c2f746578743e3c2f7376673e",
  "linkReferences": {},
  "deployedLinkReferences": {}
}